:100000000C9434000C9449000C9449000C94490061
:100010000C9449000C9449000C9449000C9449003C
:100020000C9449000C9449000C9449000C9449002C
:100030000C9449000C9460000C9449000C94490005
:100040000C9449000C9449000C9449000C9449000C
:100050000C9449000C9449000C9449000C944900FC
:100060000C9449000C94490011241FBECFEFD8E036
:10007000DEBFCDBF11E0A0E0B1E0ECE3F2E002C0F2
:1000800005900D92A430B107D9F70E94DF000C94BF
:100090001C010C94000090917C00987F8770892B44
:1000A00080937C0080917A00806480937A008091B4
:1000B0007A0086FDFCCF80917800909179000895B8
:1000C0001F920F920FB60F9211242F933F934F93CD
:1000D0005F936F937F938F939F93AF93BF93CF93D0
:1000E000EF93FF93F8945E9A8FE493EC0197F1F706
:1000F00000C0000080E00E944B002091020130917E
:1001000003012817390718F4299AC1E001C0C0E09B
:1001100081E00E944B0020910201309103012817D9
:10012000390710F42A9AC1E082E00E944B00209126
:100130000001309101012817390710F42B9AC1E012
:1001400083E00E944B0020910001309101012817AB
:10015000390710F42C9AC1E084E00E944B002091F2
:100160000201309103012817390710F42D9A02C0BB
:10017000CC2369F09FEB27E289E09150204080403A
:10018000E1F700C0000085B1807C85B95F985E987A
:1001900078941092850010928400FF91EF91CF9196
:1001A000BF91AF919F918F917F916F915F914F918F
:1001B0003F912F910F900FBE0F901F90189587B110
:1001C000807C87B985B7806185BF80917C00806C19
:1001D00080937C0080917A00856880937A0084B156
:1001E0008F6384B985B1807C85B98AB1806C8AB906
:1001F0005F985E9883B7816083BF85B7806685BF4F
:1002000080916400826E8093640014BE80916F00C0
:10021000816080936F008091810085608093810070
:100220001092850010928400789483B7886083BF11
:0C02300083B7877F83BFF9CFF894FFCF1E
:04023C00E001E001FC
:00000001FF
