:100000000C9434000C94FD030C9451000C9451009A
:100010000C9451000C9451000C9451000C9451001C
:100020000C9451000C9451000C9451000C94320427
:100030000C9462040C94B2040C9451000C94510082
:100040000C9451000C9451000C9451000C945100EC
:100050000C9451000C9451000C9451000C945100DC
:100060000C9451000C94510011241FBECFEFD8E026
:10007000DEBFCDBF13E0A0E0B1E0EEEEF9E002C0DC
:1000800005900D92A238B107D9F723E0A2E8B3E0BA
:1000900001C01D92A338B207E1F70E94F0040C944E
:1000A000F5040C94000085B18FEF85B988B18F619C
:1000B00088B98BB18B6F8BB9089585B115B888B1AC
:1000C000807E88B98BB184708BB908958F929F928E
:1000D000AF92BF92CF92DF92EF92FF920F931F9356
:1000E000CF93DF930E945300459AE091820385E00D
:1000F0008E9FF0011124EE5FFE4F208195B120FB11
:10010000AA24A0F8B12CA094B094A922A5B8E0919B
:1001100082038E9FF0011124EE5FFE4F908145B166
:100120009470292F30E0359527952095309524231C
:1001300025B9E09182038E9FF0011124EE5FFE4FFE
:10014000908145B19071292F30E0359527953595EF
:10015000279520953095242325B9E09182038E9F21
:10016000F0011124EE5FFE4F908145B19074292F6C
:1001700030E063E0359527956A95E1F72095309555
:10018000242325B9E09182038E9FF0011124EE5FB4
:10019000FE4F218195B1022F017010E074E0000F35
:1001A000111F7A95E1F700951095092305B9E091A3
:1001B00082038E9FF0011124EE5FFE4F918145B1C5
:1001C0009470292F30E0E3E0220F331FEA95E1F726
:1001D00020953095242325B9E09182038E9FF0016C
:1001E0001124EE5FFE4F918145B19071292F30E0CF
:1001F000220F331F220F331F20953095242325B95A
:10020000E09182038E9FF0011124EE5FFE4F9181F9
:1002100045B19074292F30E0220F331F209530957F
:10022000242325B9E09182038E9FF0011124EE5F13
:10023000FE4F228198B120FBCC24C0F8D12CC09471
:10024000D094C922C8B8E09182038E9FF001112496
:10025000EE5FFE4F928148B19470292F30E03595C2
:10026000279520953095242328B9E09182038E9F0D
:10027000F0011124EE5FFE4F928148B19071292F59
:1002800030E0359527953595279520953095242391
:1002900028B9E09182038E9FF0011124EE5FFE4F9A
:1002A000928148B19074292F30E0D3E0359527959D
:1002B000DA95E1F720953095242328B9E09182035F
:1002C0008E9FF0011124EE5FFE4F238198B12170C3
:1002D000C22F20E0D22F14E0CC0FDD1F1A95E1F7DA
:1002E000C095D095C923C8B9E09182038E9FF001D3
:1002F0001124EE5FFE4F23819BB122FBEE24E0F838
:10030000F12CE094F094E922EBB8E09182038E9F07
:10031000F0011124EE5FFE4F93814BB19071292FB4
:1003200030E003E0359527950A95E1F72095309563
:1003300024232BB9E09182038E9FF0011124EE5FFC
:10034000FE4F93814BB19074292F30E093E03595A7
:1003500027959A95E1F72095309524232BB9E091C4
:1003600082038E9FF0011124EE5FFE4F24819BB12A
:1003700020FB882480F8912C24E0880C991C2A9575
:10038000E1F78094909489228BB8E09182038E9F4C
:10039000F0011124EE5FFE4F94814BB19470292F30
:1003A00030E053E0220F331F5A95E1F72095309546
:1003B00024232BB9E09182038E9FF0011124EE5F7C
:1003C000FE4F94814BB19071292F30E0220F331FE3
:1003D000220F331F2095309524232BB9E0918203FF
:1003E0008E9FF0011124EE5FFE4F94812BB190742B
:1003F000892F90E0880F991F8095909582238BB963
:10040000DF91CF911F910F91FF90EF90DF90CF90F0
:10041000BF90AF909F908F900895EF92FF920F93AF
:100420001F93CF93DF930E9453004598E09182037E
:1004300085E08E9FF0011124EE5FFE4F208195B183
:1004400021FBEE24E0F8F12CE094F094E922E5B8E9
:10045000E09182038E9FF0011124EE5FFE4F9081A8
:1004600045B19870292F30E035952795359527951A
:1004700020953095242325B9E09182038E9FF001C9
:100480001124EE5FFE4F908145B19072292F30E02C
:1004900053E0359527955A95E1F72095309524231B
:1004A00025B9E09182038E9FF0011124EE5FFE4F8B
:1004B000908145B19078292F30E064E035952795FB
:1004C0006A95E1F720953095242325B9E0918203C0
:1004D0008E9FF0011124EE5FFE4F918145B1927025
:1004E000292F30E073E0220F331F7A95E1F7209532
:1004F0003095242325B9E09182038E9FF0011124C9
:10050000EE5FFE4F918145B19870292F30E0220FA8
:10051000331F220F331F20953095242325B9E091F6
:1005200082038E9FF0011124EE5FFE4F918145B151
:100530009072292F30E0220F331F2095309524230D
:1005400025B9E09182038E9FF0011124EE5FFE4FEA
:10055000918125B190789095922395B9E09182038D
:100560008E9FF0011124EE5FFE4F228198B121FB96
:10057000002700F910E000951095092308B9E091D3
:1005800082038E9FF0011124EE5FFE4F928148B1ED
:100590009870292F30E0359527953595279520952A
:1005A0003095242328B9E09182038E9FF001112415
:1005B000EE5FFE4F928148B19072292F30E0B3E098
:1005C00035952795BA95E1F720953095242328B9DC
:1005D000E09182038E9FF0011124EE5FFE4F928125
:1005E00048B19078292F30E0C4E035952795CA9519
:1005F000E1F720953095242328B9E09182038E9F5E
:10060000F0011124EE5FFE4F938148B19270292FC3
:1006100030E0D3E0220F331FDA95E1F720953095D3
:10062000242328B9E09182038E9FF0011124EE5F0C
:10063000FE4F23819BB123FB222720F9C22F20E00C
:10064000D22FC095D095C923CBB9E09182038E9F5C
:10065000F0011124EE5FFE4F93814BB19072292F70
:1006600030E014E0359527951A95E1F720953095FF
:1006700024232BB9E09182038E9FF0011124EE5FB9
:10068000FE4F93814BB19078292F30E004E03595EF
:1006900027950A95E1F72095309524232BB9E09111
:1006A00082038E9FF0011124EE5FFE4F94814BB1C7
:1006B0009270292F30E093E0220F331F9A95E1F7D3
:1006C0002095309524232BB9E09182038E9FF00171
:1006D0001124EE5FFE4F94814BB19870292F30E0CA
:1006E000220F331F220F331F2095309524232BB95F
:1006F000E09182038E9FF0011124EE5FFE4F948102
:100700004BB19072292F30E0220F331F2095309586
:1007100024232BB9E09182038E9FF0011124EE5F18
:10072000FE4F84819BB18078809589238BB9DF91BE
:10073000CF911F910F91FF90EF90089520E030E04E
:1007400095E08FEF929FF001939FF00D1124EE5FE3
:10075000FE4F808381838283838384832F5F3F4F17
:100760002038310579F7089580E090E025E0289F52
:10077000F001299FF00D1124EE5FFE4F10821182CF
:1007800012821382148201968038910581F70895B0
:10079000E2E0F1E084819481990F94839381248134
:1007A000991F9927991F922794839381990F938377
:1007B00092812381991F9927991F92279383928170
:1007C000990F928391812281991F9927991F9227CE
:1007D00092839181990F918390812181991F99270B
:1007E000991F922791839081990F90839081881F00
:1007F0008827881F8927808308951F920F920FB63C
:100800000F9211248F939F93EF93FF93E4E8F0E00E
:1008100080819181880F892F881F990B91959093E2
:100820000101809300018091000190910101969552
:100830008795909389008093880080910001909122
:10084000010190938B0080938A00109282031182A1
:100850001082FF91EF919F918F910F900FBE0F909B
:100860001F9018951F920F920FB60F9211242F937D
:100870003F934F935F936F937F938F939F93AF9328
:10088000BF93EF93FF930E94660020910001309187
:100890000101E8E8F0E080819181820F931F91834C
:1008A0008083FF91EF91BF91AF919F918F917F9145
:1008B0006F915F914F913F912F910F900FBE0F90CD
:1008C0001F9018951F920F920FB60F9211242F931D
:1008D0003F934F935F936F937F938F939F93AF93C8
:1008E000BF93EF93FF930E940D022091000130917E
:1008F000010180918A0090918B00820F931F909349
:100900008B0080938A008091820387FD06C08091CE
:1009100082038F5F8093820314C0109282038091C0
:10092000000190910101969587959093890080939D
:100930008800809100019091010190938B00809339
:100940008A00FF91EF91BF91AF919F918F917F911D
:100950006F915F914F913F912F910F900FBE0F902C
:100960001F9018951F920F920FB60F9211240F909F
:100970000FBE0F901F90189584B18FEF84B987B187
:100980008F6187B98AB18B6F8AB90E9453003D9AF3
:10099000459A52985A9AE89AE9E6F0E08081826096
:1009A0008083E1E8F0E0808185608083E2E8F0E028
:1009B0008081806C80838FEF9FEF9093890080937C
:1009C000880090938B0080938A001092850010928B
:1009D0008400EFE6F0E0808187608083789408955A
:0E09E0000E94BC040E945300FFCFF894FFCF8A
:1009EE00FFFF0000000000000000000000000000FB
:1009FE0000000000000000000000000000000000E9
:100A0E0000000000000000000000000000000000D8
:100A1E0000000000000000000000000000000000C8
:100A2E000000000000000000000000040000006054
:100A3E000E001000A01F001000F01F003000303F0D
:100A4E0000F800907F00780C907F00380E801F0019
:100A5E003809800F00B809C60F00B80B130F00B885
:100A6E00071D1E00F8371C1E00F87F181E00F87FA9
:100A7E00381C00F87F230000F8FF3B0000FCFF1D30
:100A8E000000F8FF0F0000F8FF000000F8FF000064
:100A9E0000FC7F000000FC7F000000FC7F000000D7
:100AAE00FCFF040000FCFF030000FCFF030000FC41
:100ABE00FF010000FC7F000000FC7F000000FC3FF7
:100ACE00000000FE3F000000FC3F000000F8FF00A9
:100ADE000000F8FF000000F8FF030000F8FB87039A
:100AEE0000F8FF0F0700FCFF1F0200F8FFFF0000D9
:100AFE00F0FFFF0100F0FDFF0300F8FFFF0700F815
:100B0E00F5FF0F00F8F7FF1F00F8F7FF1F00FAF7C9
:100B1E00FF1F00FAF7FF0F00FAF7FF0700F2FB3F87
:100B2E000100E0FF070000A0FB07000080FB0700AC
:100B3E0000C0FF070000C0FE070000C0FE07000057
:100B4E0012F407000016E00700001EE00300000E7E
:100B5E00000100000E000000000E000000001E004C
:100B6E000000001E000000001E000000003E0000FD
:100B7E0000001E006000000200E003000200F0030F
:100B8E00001A00F00300DA01F00F00FE00F81F005B
:100B9E00FE01FC3F00EC01FC3F40EC01FCFFC0DC21
:100BAE0003FEFF80DC03FEFF00DC07FE3F00DC8F50
:100BBE00FE0100FC0FFE0000FC4FFC0000FC7F3825
:100BCE000000FC1F020000F81F030000F89F010048
:100BDE0000F89F010000F8BF010000F8FF000000C0
:100BEE00F8FF000000F8FF000000F87F000000F89A
:100BFE003F000000783E000000380E000000380074
:100C0E00000000380000000030000000003000003E
:100C1E0000002000000000000000000000000000A6
:100C2E0000000000000000000000000000000000B6
:100C3E0000000000000000000000000000000000A6
:100C4E000000000000000000000000000000000096
:100C5E000000000000000000000000000000000086
:020C6E00000084
:00000001FF
