:100000000C9434000C9446000C9446000C9446006A
:100010000C9446000C9446000C9446000C94460048
:100020000C9446000C9446000C9446000C94460038
:100030000C9446000C9446000C9446000C94460028
:100040000C94E6000C9446000C9446000C94460078
:100050000C9446000C9446000C9446000C94460008
:100060000C9446000C94460011241FBECFEFD8E03C
:10007000DEBFCDBF21E0A0E0B1E001C01D92A03401
:10008000B207E1F70E9433040C945E040C94000064
:10009000CF93DF9360E071E080E090E140E251E0D7
:1000A000E2E0F4E0A8E020E030E028982998EB01B5
:1000B000C20FD31FB881BBB900000000289A00000E
:1000C000000028982F5F3F4F2830310571F700005E
:1000D0000000299A0000000029982A9881110CC07C
:1000E00028B1242728B9CFEBD2E12197F1F700C03E
:1000F000000028B124270DC0813069F428B12927D8
:1001000028B9CFE6D7E12197F1F700C0000028B168
:10011000292728B951C0823061F428B12A2728B98B
:10012000CFE6D7E12197F1F700C0000028B12A27D8
:10013000F0CF833061F428B12F2728B9CFEAD4E07B
:100140002197F1F700C0000028B12F27E2CF8430BB
:1001500061F428B12E2728B9CFEAD4E02197F1F72E
:1001600000C0000028B12E27D4CF853061F428B11B
:10017000252728B9CFEAD4E02197F1F700C0000085
:1001800028B12527C6CF25B1863059F4242725B9B3
:10019000CFEAD4E02197F1F700C0000025B1242771
:1001A0000AC0292725B9CFEAD4E02197F1F700C08A
:1001B000000025B1292725B92A9A8F5F685F7F4FF4
:1001C000883009F070CFDF91CF9108951F920F9280
:1001D0000FB60F9211242F933F934F935F936F931A
:1001E0007F938F939F93AF93BF93EF93FF9316BC2F
:1001F00000000E944800FF91EF91BF91AF919F9145
:100200008F917F916F915F914F913F912F910F90BF
:100210000FBE0F901F90189540E051E028E080E05D
:1002200090E0FA01E80FF91F1082019688309105DD
:10023000C1F72150485F5F4F2111F1CF089540E091
:1002400051E028E03FEF80E090E0FA01E80FF91F6D
:100250003083019688309105C1F72150485F5F4F88
:100260002111F1CF089528E0829FC0011124FC01E3
:10027000E050FF4F938188E19827938394818927E9
:100280008483089528E0829FC0011124FC01E0507E
:10029000FF4F92818CE398279283238194E2292750
:1002A00023832481922794839581892785830895C8
:1002B00028E0829FC0011124FC01E050FF4F8181A2
:1002C0009EE789278183228182E428272283238154
:1002D0002827238324812827248325818227858337
:1002E000868198279683089528E0829FC001112473
:1002F000FC01E050FF4F808180958083918181E8EF
:10030000982791839281982792839381982793834A
:10031000948198279483958198279583968189273E
:10032000868387818095878308951F93CF93DF937A
:100330000E940C012FEF81EE94E02150804090400C
:10034000E1F700C00000C0E0D1E0FE018FEF819333
:10035000878F21E0E830F207D1F78FEF91EE24E0AC
:10036000815090402040E1F700C00000E8E0F1E05B
:100370008FEF8193878791E0E031F907D1F72FEF75
:1003800081EE94E0215080409040E1F700C00000F1
:1003900082E00E94330183E00E9433012FEF81EE5F
:1003A00094E0215080409040E1F700C0000083E0DD
:1003B0000E94330184E00E94330182E00E944201E6
:1003C00083E00E9442012FEF81EE94E021508040B3
:1003D0009040E1F700C0000084E00E94330183E018
:1003E0000E94330183E00E94420184E00E944201A6
:1003F00082E00E94580183E00E9458011A3009F4FB
:100400000AC12FEF81EE94E0215080409040E1F747
:1004100000C0000083E00E94330182E00E943301AB
:1004200084E00E94420183E00E94420183E00E9436
:10043000580184E00E94580182E00E94740183E028
:100440000E9474012FEF81EE94E021508040904093
:10045000E1F700C0000082E00E94330181E00E94C9
:10046000330183E00E94420182E00E94420184E065
:100470000E94580183E00E94580183E00E947401A9
:1004800084E00E9474012FEF81EE94E021508040BF
:100490009040E1F700C0000081E00E94330180E05D
:1004A0000E94330182E00E94420181E00E944201E9
:1004B00083E00E94580182E00E94580184E00E947B
:1004C000740183E00E9474012FEF81EE94E02150CB
:1004D00080409040E1F700C0000080E00E943301BE
:1004E00081E00E94330181E00E94420180E00E948D
:1004F000420182E00E94580181E00E94580183E09D
:100500000E94740182E00E9474012FEF81EE94E05A
:10051000215080409040E1F700C0000081E00E943F
:10052000330182E00E94330180E00E94420181E0B9
:100530000E94420181E00E94580180E00E9458011F
:1005400082E00E94740181E00E9474012FEF81EE2D
:1005500094E0215080409040E1F700C0000082E02C
:100560000E94330183E00E94330181E00E94420136
:1005700082E00E94420180E00E94580181E00E94D6
:10058000580181E00E94740180E00E9474012FEF05
:1005900081EE94E0215080409040E1F700C00000DF
:1005A00083E00E94330184E00E94330182E00E94D4
:1005B000420183E00E94420181E00E94580182E0F2
:1005C0000E94580180E00E94740181E00E94740141
:1005D0002FEF81EE94E0215080409040E1F700C081
:1005E000000084E00E94330183E00E94330183E035
:1005F0000E94420184E00E94420182E00E94580170
:1006000083E00E94580181E00E94740182E00E9410
:1006100074011F5FF3CE2FEF81EE94E021508040F4
:100620009040E1F700C0000083E00E94330182E0C7
:100630000E94330184E00E94420183E00E94420153
:1006400083E00E94580184E00E94580182E00E94E9
:10065000740183E00E9474012FEF81EE94E0215039
:1006600080409040E1F700C0000082E00E9433012A
:1006700081E00E94330183E00E94420182E00E94F7
:10068000420184E00E94580183E00E94580183E007
:100690000E94740184E00E9474012FEF81EE94E0C7
:1006A000215080409040E1F700C0000081E00E94AE
:1006B000330180E00E94330182E00E94420181E028
:1006C0000E94420183E00E94580182E00E9458018A
:1006D00084E00E94740183E00E9474012FEF81EE98
:1006E00094E0215080409040E1F700C0000080E09D
:1006F0000E94330181E00E94330181E00E944201A7
:1007000080E00E94420182E00E94580181E00E9444
:10071000580183E00E94740182E00E9474012FEF6F
:1007200081EE94E0215080409040E1F700C000004D
:1007300081E00E94330182E00E94330180E00E9448
:10074000420181E00E94420181E00E94580180E064
:100750000E94580182E00E94740181E00E947401AD
:100760002FEF81EE94E0215080409040E1F700C0EF
:10077000000081E00E94420182E00E94420180E08C
:100780000E94580181E00E94580181E00E9474019A
:1007900080E00E9474012FEF81EE94E021508040B0
:1007A0009040E1F700C0000081E00E94580182E023
:1007B0000E94580180E00E94740181E00E9474014F
:1007C0002FEF81EE94E0215080409040E1F700C08F
:1007D000000081E00E94740182E00E9474012FEF0A
:1007E00081EE94E0215080409040E1F700C000008D
:1007F000E8E0F1E01192178621E0E031F207D1F74D
:100800008FEF91EE24E0815090402040E1F700C04E
:10081000000019921F8E81E0C830D807D1F7DF9110
:10082000CF911F9108958AB18FEF8AB98BB11BB810
:1008300087B18F6387B988B1807C88B984B18F63B1
:1008400084B985B18C7C85B985B18C6085B985B555
:10085000856085BDEEE6F0E080818160808316BC16
:1008600078940C941F010E9413042FEF81EE94E002
:10087000215080409040E1F700C000000E940C0130
:100880002FEF89E698E1215080409040E1F700C0C9
:1008900000000E9495012FEF89E698E121508040E9
:1008A0009040E1F700C000000E941F012FEF89E691
:1008B00098E1215080409040E1F7DECFF894FFCFDF
:00000001FF
