:100000000C9434000C9446000C9446000C9446006A
:100010000C9446000C9446000C9446000C94460048
:100020000C9446000C9446000C9446000C94460038
:100030000C9446000C9446000C9446000C94460028
:100040000C9403010C9446000C9446000C9446005A
:100050000C9446000C9446000C9446000C94460008
:100060000C9446000C94460011241FBECFEFD8E03C
:10007000DEBFCDBF21E0A0E0B1E001C01D92A03401
:10008000B207E1F70E9449040C9466040C94000046
:10009000FF920F931F93CF93DF93E0E0F1E0BF0156
:1000A00080E090E140E251E0A2E0B4E028E0F22EEE
:1000B00020E030E0289829988B01020F131FE801F7
:1000C00018811BB900000000289A00000000289841
:1000D0002F5F3F4F2830310569F700000000299A53
:1000E0000000000029982A9881110CC028B124270B
:1000F00028B9C5EADEE02197F1F700C0000028B179
:1001000024270DC0813069F428B1292728B9C5EA10
:10011000DEE02197F1F700C0000028B1292728B9B7
:1001200051C0823061F428B12F2528B9C7E8D3E146
:100130002197F1F700C0000028B12F25F0CF8330C0
:1001400061F428B12B2728B9C1EED4E02197F1F74B
:1001500000C0000028B12B27E2CF843061F428B121
:100160002A2728B9C1EED4E02197F1F700C000009A
:1001700028B12A27D4CF853061F428B1252728B9A2
:10018000C9EFD0E02197F1F700C0000028B1252782
:10019000C6CF25B1863059F4242725B9C9EFD0E060
:1001A0002197F1F700C0000025B124270AC02927B4
:1001B00025B9C9EFD0E02197F1F700C0000025B1C3
:1001C000292725B92A9A8F5F685F7F4F883009F009
:1001D0006FCF20E431E090E28681892786833896CC
:1001E0002E173F07C9F7DF91CF911F910F91FF9015
:1001F000089585B5856085BDEEE6F0E0808181607B
:10020000808316BC08951F920F920FB60F9211248F
:100210002F933F934F935F936F937F938F939F930E
:10022000AF93BF93EF93FF9316BC00000E9448006A
:10023000FF91EF91BF91AF919F918F917F916F91BE
:100240005F914F913F912F910F900FBE0F901F9094
:10025000189540E051E028E080E090E0FA01E80FD6
:10026000F91F1082019688309105C1F72150485F2F
:100270005F4F2111F1CF089540E051E028E03FEFBA
:1002800080E090E0FA01E80FF91F30830196883092
:100290009105C1F72150485F5F4F2111F1CF0895BB
:1002A00028E0829FC0011124FC01E050FF4F9381A0
:1002B00088E198279383948189278483089528E08F
:1002C000829FC0011124FC01E050FF4F92818CE31A
:1002D00098279283238194E22927238324819227DC
:1002E0009483958189278583089528E0829FC001A2
:1002F0001124FC01E050FF4F81819EE78927818313
:10030000228182E4282722832381282723832481B2
:1003100028272483258182278583868198279683B1
:10032000089528E0829FC0011124FC01E050FF4F96
:10033000808180958083918181E898279183928143
:100340009827928393819827938394819827948305
:1003500095819827958396818927868387818095C3
:10036000878308951F93CF93DF930E9429012FE77E
:1003700084E89EE1215080409040E1F700C00000F9
:10038000C0E0D1E0FE018FEF8193878F21E0E8305C
:10039000F207D1F78FE794E82EE18150904020409A
:1003A000E1F700C00000E8E0F1E08FEF819387877C
:1003B00091E0E031F907D1F72FE784E89EE1215081
:1003C00080409040E1F700C0000082E00E945001B0
:1003D00083E00E9450012FE784E89EE12150804095
:1003E0009040E1F700C0000083E00E94500184E0EB
:1003F0000E94500182E00E945F0183E00E945F0141
:100400002FE784E89EE1215080409040E1F700C052
:10041000000084E00E94500183E00E94500183E0CC
:100420000E945F0184E00E945F0182E00E947501EA
:1004300083E00E9475011A3009F40AC12FE784E8AD
:100440009EE1215080409040E1F700C0000083E031
:100450000E94500182E00E94500184E00E945F01EE
:1004600083E00E945F0183E00E94750184E00E94A6
:10047000750182E00E94910183E00E9491012FE7C3
:1004800084E89EE1215080409040E1F700C00000E8
:1004900082E00E94500181E00E94500183E00E94AE
:1004A0005F0182E00E945F0184E00E94750183E0A9
:1004B0000E94750183E00E94910184E00E949101F5
:1004C0002FE784E89EE1215080409040E1F700C092
:1004D000000081E00E94500180E00E94500182E013
:1004E0000E945F0181E00E945F0183E00E9475012C
:1004F00082E00E94750184E00E94910183E00E94E5
:1005000091012FE784E89EE1215080409040E1F77F
:1005100000C0000080E00E94500181E00E94500174
:1005200081E00E945F0180E00E945F0182E00E9402
:10053000750181E00E94750183E00E94910182E0D3
:100540000E9491012FE784E89EE121508040904075
:10055000E1F700C0000081E00E94500182E00E94AB
:10056000500180E00E945F0181E00E945F0181E014
:100570000E94750180E00E94750182E00E94910155
:1005800081E00E9491012FE784E89EE121508040A4
:100590009040E1F700C0000082E00E94500183E03B
:1005A0000E94500181E00E945F0182E00E945F0191
:1005B00080E00E94750181E00E94750181E00E9447
:1005C000910180E00E9491012FE784E89EE1215093
:1005D00080409040E1F700C0000083E00E9450019D
:1005E00084E00E94500182E00E945F0183E00E944B
:1005F0005F0181E00E94750182E00E94750180E048
:100600000E94910181E00E9491012FE784E89EE120
:10061000215080409040E1F700C0000084E00E943B
:10062000500183E00E94500183E00E945F0184E05A
:100630000E945F0182E00E94750183E00E947501C3
:1006400081E00E94910182E00E9491011F5FF3CE40
:100650002FE784E89EE1215080409040E1F700C000
:10066000000083E00E94500182E00E94500184E07B
:100670000E945F0183E00E945F0183E00E94750198
:1006800084E00E94750182E00E94910183E00E9453
:1006900091012FE784E89EE1215080409040E1F7EE
:1006A00000C0000082E00E94500181E00E945001E1
:1006B00083E00E945F0182E00E945F0184E00E946B
:1006C000750183E00E94750183E00E94910184E03E
:1006D0000E9491012FE784E89EE1215080409040E4
:1006E000E1F700C0000081E00E94500180E00E941C
:1006F000500182E00E945F0181E00E945F0183E07F
:100700000E94750182E00E94750184E00E949101BF
:1007100083E00E9491012FE784E89EE12150804010
:100720009040E1F700C0000080E00E94500181E0AD
:100730000E94500181E00E945F0180E00E945F0101
:1007400082E00E94750181E00E94750183E00E94B1
:10075000910182E00E9491012FE784E89EE12150FF
:1007600080409040E1F700C0000081E00E9450010D
:1007700082E00E94500180E00E945F0181E00E94BF
:100780005F0181E00E94750180E00E94750182E0B6
:100790000E94910181E00E9491012FE784E89EE18F
:1007A000215080409040E1F700C0000081E00E94AD
:1007B0005F0182E00E945F0180E00E94750181E09C
:1007C0000E94750181E00E94910180E00E949101E8
:1007D0002FE784E89EE1215080409040E1F700C07F
:1007E000000081E00E94750182E00E94750180E0B6
:1007F0000E94910181E00E9491012FE784E89EE12F
:10080000215080409040E1F700C0000081E00E944C
:10081000910182E00E9491012FE784E89EE121503E
:1008200080409040E1F700C00000E8E0F1E0119264
:10083000178621E0E031F207D1F78FE794E82EE147
:10084000815090402040E1F700C0000019921F8EB7
:1008500081E0C830D807D1F7DF91CF911F9108957B
:100860008AB18FEF8AB98BB11BB887B18F6387B913
:1008700088B1807C88B984B18F6384B985B18C7C60
:1008800085B985B18C6085B978940E943C010C943F
:10089000F9000E94300487EA91E60197F1F700C061
:1008A00000000E9429019FE724E88EE1915020403A
:1008B0008040E1F700C000000E943C019FE724E86F
:1008C0008EE1915020408040E1F7E9CFF894FFCFCE
:00000001FF
